{
  "_format": "hh-sol-artifact-1",
  "contractName": "Resources",
  "sourceName": "contracts/Resources.sol",
  "abi": [
    {
      "inputs": [
        {
          "internalType": "address",
          "name": "_pixel",
          "type": "address"
        }
      ],
      "stateMutability": "nonpayable",
      "type": "constructor"
    },
    {
      "anonymous": false,
      "inputs": [
        {
          "indexed": true,
          "internalType": "address",
          "name": "account",
          "type": "address"
        },
        {
          "indexed": true,
          "internalType": "address",
          "name": "operator",
          "type": "address"
        },
        {
          "indexed": false,
          "internalType": "bool",
          "name": "approved",
          "type": "bool"
        }
      ],
      "name": "ApprovalForAll",
      "type": "event"
    },
    {
      "anonymous": false,
      "inputs": [
        {
          "indexed": true,
          "internalType": "address",
          "name": "operator",
          "type": "address"
        },
        {
          "indexed": true,
          "internalType": "address",
          "name": "from",
          "type": "address"
        },
        {
          "indexed": true,
          "internalType": "address",
          "name": "to",
          "type": "address"
        },
        {
          "indexed": false,
          "internalType": "uint256[]",
          "name": "ids",
          "type": "uint256[]"
        },
        {
          "indexed": false,
          "internalType": "uint256[]",
          "name": "values",
          "type": "uint256[]"
        }
      ],
      "name": "TransferBatch",
      "type": "event"
    },
    {
      "anonymous": false,
      "inputs": [
        {
          "indexed": true,
          "internalType": "address",
          "name": "operator",
          "type": "address"
        },
        {
          "indexed": true,
          "internalType": "address",
          "name": "from",
          "type": "address"
        },
        {
          "indexed": true,
          "internalType": "address",
          "name": "to",
          "type": "address"
        },
        {
          "indexed": false,
          "internalType": "uint256",
          "name": "id",
          "type": "uint256"
        },
        {
          "indexed": false,
          "internalType": "uint256",
          "name": "value",
          "type": "uint256"
        }
      ],
      "name": "TransferSingle",
      "type": "event"
    },
    {
      "anonymous": false,
      "inputs": [
        {
          "indexed": false,
          "internalType": "string",
          "name": "value",
          "type": "string"
        },
        {
          "indexed": true,
          "internalType": "uint256",
          "name": "id",
          "type": "uint256"
        }
      ],
      "name": "URI",
      "type": "event"
    },
    {
      "inputs": [],
      "name": "DUAL_POTIONS",
      "outputs": [
        {
          "internalType": "uint256",
          "name": "",
          "type": "uint256"
        }
      ],
      "stateMutability": "view",
      "type": "function"
    },
    {
      "inputs": [],
      "name": "FOOD",
      "outputs": [
        {
          "internalType": "uint256",
          "name": "",
          "type": "uint256"
        }
      ],
      "stateMutability": "view",
      "type": "function"
    },
    {
      "inputs": [],
      "name": "HEALTH_POTIONS",
      "outputs": [
        {
          "internalType": "uint256",
          "name": "",
          "type": "uint256"
        }
      ],
      "stateMutability": "view",
      "type": "function"
    },
    {
      "inputs": [],
      "name": "SKELETON_BONES",
      "outputs": [
        {
          "internalType": "uint256",
          "name": "",
          "type": "uint256"
        }
      ],
      "stateMutability": "view",
      "type": "function"
    },
    {
      "inputs": [],
      "name": "STAMINA_POTIONS",
      "outputs": [
        {
          "internalType": "uint256",
          "name": "",
          "type": "uint256"
        }
      ],
      "stateMutability": "view",
      "type": "function"
    },
    {
      "inputs": [],
      "name": "STONE",
      "outputs": [
        {
          "internalType": "uint256",
          "name": "",
          "type": "uint256"
        }
      ],
      "stateMutability": "view",
      "type": "function"
    },
    {
      "inputs": [],
      "name": "WOOD",
      "outputs": [
        {
          "internalType": "uint256",
          "name": "",
          "type": "uint256"
        }
      ],
      "stateMutability": "view",
      "type": "function"
    },
    {
      "inputs": [
        {
          "internalType": "address",
          "name": "account",
          "type": "address"
        },
        {
          "internalType": "uint256",
          "name": "id",
          "type": "uint256"
        }
      ],
      "name": "balanceOf",
      "outputs": [
        {
          "internalType": "uint256",
          "name": "",
          "type": "uint256"
        }
      ],
      "stateMutability": "view",
      "type": "function"
    },
    {
      "inputs": [
        {
          "internalType": "address[]",
          "name": "accounts",
          "type": "address[]"
        },
        {
          "internalType": "uint256[]",
          "name": "ids",
          "type": "uint256[]"
        }
      ],
      "name": "balanceOfBatch",
      "outputs": [
        {
          "internalType": "uint256[]",
          "name": "",
          "type": "uint256[]"
        }
      ],
      "stateMutability": "view",
      "type": "function"
    },
    {
      "inputs": [
        {
          "internalType": "uint256",
          "name": "amount",
          "type": "uint256"
        }
      ],
      "name": "chopWood",
      "outputs": [],
      "stateMutability": "nonpayable",
      "type": "function"
    },
    {
      "inputs": [
        {
          "internalType": "uint256",
          "name": "amount",
          "type": "uint256"
        }
      ],
      "name": "harvestFood",
      "outputs": [],
      "stateMutability": "nonpayable",
      "type": "function"
    },
    {
      "inputs": [
        {
          "internalType": "address",
          "name": "account",
          "type": "address"
        },
        {
          "internalType": "address",
          "name": "operator",
          "type": "address"
        }
      ],
      "name": "isApprovedForAll",
      "outputs": [
        {
          "internalType": "bool",
          "name": "",
          "type": "bool"
        }
      ],
      "stateMutability": "view",
      "type": "function"
    },
    {
      "inputs": [
        {
          "internalType": "uint256",
          "name": "amount",
          "type": "uint256"
        }
      ],
      "name": "lootSkeleton",
      "outputs": [],
      "stateMutability": "nonpayable",
      "type": "function"
    },
    {
      "inputs": [
        {
          "internalType": "uint256",
          "name": "amount",
          "type": "uint256"
        }
      ],
      "name": "makeDualPotion",
      "outputs": [],
      "stateMutability": "nonpayable",
      "type": "function"
    },
    {
      "inputs": [
        {
          "internalType": "uint256",
          "name": "amount",
          "type": "uint256"
        }
      ],
      "name": "makeHealthPotion",
      "outputs": [],
      "stateMutability": "nonpayable",
      "type": "function"
    },
    {
      "inputs": [
        {
          "internalType": "uint256",
          "name": "amount",
          "type": "uint256"
        }
      ],
      "name": "makeStaminaPotion",
      "outputs": [],
      "stateMutability": "nonpayable",
      "type": "function"
    },
    {
      "inputs": [
        {
          "internalType": "uint256",
          "name": "amount",
          "type": "uint256"
        }
      ],
      "name": "mineStone",
      "outputs": [],
      "stateMutability": "nonpayable",
      "type": "function"
    },
    {
      "inputs": [],
      "name": "pixel",
      "outputs": [
        {
          "internalType": "contract IERC20",
          "name": "",
          "type": "address"
        }
      ],
      "stateMutability": "view",
      "type": "function"
    },
    {
      "inputs": [
        {
          "internalType": "address",
          "name": "from",
          "type": "address"
        },
        {
          "internalType": "address",
          "name": "to",
          "type": "address"
        },
        {
          "internalType": "uint256[]",
          "name": "ids",
          "type": "uint256[]"
        },
        {
          "internalType": "uint256[]",
          "name": "amounts",
          "type": "uint256[]"
        },
        {
          "internalType": "bytes",
          "name": "data",
          "type": "bytes"
        }
      ],
      "name": "safeBatchTransferFrom",
      "outputs": [],
      "stateMutability": "nonpayable",
      "type": "function"
    },
    {
      "inputs": [
        {
          "internalType": "address",
          "name": "from",
          "type": "address"
        },
        {
          "internalType": "address",
          "name": "to",
          "type": "address"
        },
        {
          "internalType": "uint256",
          "name": "id",
          "type": "uint256"
        },
        {
          "internalType": "uint256",
          "name": "amount",
          "type": "uint256"
        },
        {
          "internalType": "bytes",
          "name": "data",
          "type": "bytes"
        }
      ],
      "name": "safeTransferFrom",
      "outputs": [],
      "stateMutability": "nonpayable",
      "type": "function"
    },
    {
      "inputs": [
        {
          "internalType": "address",
          "name": "operator",
          "type": "address"
        },
        {
          "internalType": "bool",
          "name": "approved",
          "type": "bool"
        }
      ],
      "name": "setApprovalForAll",
      "outputs": [],
      "stateMutability": "nonpayable",
      "type": "function"
    },
    {
      "inputs": [
        {
          "internalType": "bytes4",
          "name": "interfaceId",
          "type": "bytes4"
        }
      ],
      "name": "supportsInterface",
      "outputs": [
        {
          "internalType": "bool",
          "name": "",
          "type": "bool"
        }
      ],
      "stateMutability": "view",
      "type": "function"
    },
    {
      "inputs": [
        {
          "internalType": "uint256",
          "name": "",
          "type": "uint256"
        }
      ],
      "name": "uri",
      "outputs": [
        {
          "internalType": "string",
          "name": "",
          "type": "string"
        }
      ],
      "stateMutability": "view",
      "type": "function"
    }
  ],
  "bytecode": "0x60806040523480156200001157600080fd5b5060405162003f2538038062003f2583398181016040528101906200003791906200077b565b6040518060400160405280601381526020017f506978656c6c616e64205265736f7572636573000000000000000000000000008152506200007e81620001b660201b60201c565b50620000a833600064e8d4a5100060405180602001604052806000815250620001d260201b60201c565b620000cf336001620f424060405180602001604052806000815250620001d260201b60201c565b620000f83360026402540be40060405180602001604052806000815250620001d260201b60201c565b6200011f336003620186a060405180602001604052806000815250620001d260201b60201c565b62000146336004620186a060405180602001604052806000815250620001d260201b60201c565b6200016e336005633b9aca0060405180602001604052806000815250620001d260201b60201c565b80600360006101000a81548173ffffffffffffffffffffffffffffffffffffffff021916908373ffffffffffffffffffffffffffffffffffffffff1602179055505062000e45565b8060029080519060200190620001ce9291906200069d565b5050565b600073ffffffffffffffffffffffffffffffffffffffff168473ffffffffffffffffffffffffffffffffffffffff16141562000245576040517f08c379a00000000000000000000000000000000000000000000000000000000081526004016200023c90620009b8565b60405180910390fd5b6000620002576200039760201b60201c565b9050620002908160008762000272886200039f60201b60201c565b62000283886200039f60201b60201c565b876200046860201b60201c565b8260008086815260200190815260200160002060008773ffffffffffffffffffffffffffffffffffffffff1673ffffffffffffffffffffffffffffffffffffffff1681526020019081526020016000206000828254620002f1919062000a49565b925050819055508473ffffffffffffffffffffffffffffffffffffffff16600073ffffffffffffffffffffffffffffffffffffffff168273ffffffffffffffffffffffffffffffffffffffff167fc3d58168c5ae7397731d063d5bbf3d657854427343f4c083240f7aacaa2d0f62878760405162000371929190620009da565b60405180910390a462000390816000878787876200047060201b60201c565b5050505050565b600033905090565b60606000600167ffffffffffffffff811115620003e5577f4e487b7100000000000000000000000000000000000000000000000000000000600052604160045260246000fd5b604051908082528060200260200182016040528015620004145781602001602082028036833780820191505090505b509050828160008151811062000453577f4e487b7100000000000000000000000000000000000000000000000000000000600052603260045260246000fd5b60200260200101818152505080915050919050565b505050505050565b6200049c8473ffffffffffffffffffffffffffffffffffffffff166200067a60201b62000c191760201c565b1562000672578373ffffffffffffffffffffffffffffffffffffffff1663f23a6e6187878686866040518663ffffffff1660e01b8152600401620004e5959493929190620008ec565b602060405180830381600087803b1580156200050057600080fd5b505af19250505080156200053457506040513d601f19601f82011682018060405250810190620005319190620007a7565b60015b620005e6576200054362000c3f565b806308c379a01415620005a757506200055b62000d6f565b80620005685750620005a9565b806040517f08c379a00000000000000000000000000000000000000000000000000000000081526004016200059e919062000950565b60405180910390fd5b505b6040517f08c379a0000000000000000000000000000000000000000000000000000000008152600401620005dd9062000974565b60405180910390fd5b63f23a6e6160e01b7bffffffffffffffffffffffffffffffffffffffffffffffffffffffff1916817bffffffffffffffffffffffffffffffffffffffffffffffffffffffff19161462000670576040517f08c379a0000000000000000000000000000000000000000000000000000000008152600401620006679062000996565b60405180910390fd5b505b505050505050565b6000808273ffffffffffffffffffffffffffffffffffffffff163b119050919050565b828054620006ab9062000b46565b90600052602060002090601f016020900481019282620006cf57600085556200071b565b82601f10620006ea57805160ff19168380011785556200071b565b828001600101855582156200071b579182015b828111156200071a578251825591602001919060010190620006fd565b5b5090506200072a91906200072e565b5090565b5b80821115620007495760008160009055506001016200072f565b5090565b6000815190506200075e8162000e11565b92915050565b600081519050620007758162000e2b565b92915050565b6000602082840312156200078e57600080fd5b60006200079e848285016200074d565b91505092915050565b600060208284031215620007ba57600080fd5b6000620007ca8482850162000764565b91505092915050565b620007de8162000aa6565b82525050565b6000620007f18262000a11565b620007fd818562000a27565b93506200080f81856020860162000b10565b6200081a8162000c64565b840191505092915050565b6000620008328262000a1c565b6200083e818562000a38565b93506200085081856020860162000b10565b6200085b8162000c64565b840191505092915050565b60006200087560348362000a38565b9150620008828262000c82565b604082019050919050565b60006200089c60288362000a38565b9150620008a98262000cd1565b604082019050919050565b6000620008c360218362000a38565b9150620008d08262000d20565b604082019050919050565b620008e68162000b06565b82525050565b600060a082019050620009036000830188620007d3565b620009126020830187620007d3565b620009216040830186620008db565b620009306060830185620008db565b8181036080830152620009448184620007e4565b90509695505050505050565b600060208201905081810360008301526200096c818462000825565b905092915050565b600060208201905081810360008301526200098f8162000866565b9050919050565b60006020820190508181036000830152620009b1816200088d565b9050919050565b60006020820190508181036000830152620009d381620008b4565b9050919050565b6000604082019050620009f16000830185620008db565b62000a006020830184620008db565b9392505050565b6000604051905090565b600081519050919050565b600081519050919050565b600082825260208201905092915050565b600082825260208201905092915050565b600062000a568262000b06565b915062000a638362000b06565b9250827fffffffffffffffffffffffffffffffffffffffffffffffffffffffffffffffff0382111562000a9b5762000a9a62000bb2565b5b828201905092915050565b600062000ab38262000ae6565b9050919050565b60007fffffffff0000000000000000000000000000000000000000000000000000000082169050919050565b600073ffffffffffffffffffffffffffffffffffffffff82169050919050565b6000819050919050565b60005b8381101562000b3057808201518184015260208101905062000b13565b8381111562000b40576000848401525b50505050565b6000600282049050600182168062000b5f57607f821691505b6020821081141562000b765762000b7562000be1565b5b50919050565b62000b878262000c64565b810181811067ffffffffffffffff8211171562000ba95762000ba862000c10565b5b80604052505050565b7f4e487b7100000000000000000000000000000000000000000000000000000000600052601160045260246000fd5b7f4e487b7100000000000000000000000000000000000000000000000000000000600052602260045260246000fd5b7f4e487b7100000000000000000000000000000000000000000000000000000000600052604160045260246000fd5b600060033d111562000c615760046000803e62000c5e60005162000c75565b90505b90565b6000601f19601f8301169050919050565b60008160e01c9050919050565b7f455243313135353a207472616e7366657220746f206e6f6e204552433131353560008201527f526563656976657220696d706c656d656e746572000000000000000000000000602082015250565b7f455243313135353a204552433131353552656365697665722072656a6563746560008201527f6420746f6b656e73000000000000000000000000000000000000000000000000602082015250565b7f455243313135353a206d696e7420746f20746865207a65726f2061646472657360008201527f7300000000000000000000000000000000000000000000000000000000000000602082015250565b600060443d101562000d815762000e0e565b62000d8b62000a07565b60043d036004823e80513d602482011167ffffffffffffffff8211171562000db557505062000e0e565b808201805167ffffffffffffffff81111562000dd5575050505062000e0e565b80602083010160043d03850181111562000df457505050505062000e0e565b62000e058260200185018662000b7c565b82955050505050505b90565b62000e1c8162000aa6565b811462000e2857600080fd5b50565b62000e368162000aba565b811462000e4257600080fd5b50565b6130d08062000e556000396000f3fe608060405234801561001057600080fd5b506004361061014c5760003560e01c80636fabf2ca116100c3578063a640559d1161007c578063a640559d1461038b578063ae84163f146103a7578063b8959fba146103c3578063c414a2a6146103e1578063e985e9c5146103fd578063f242432a1461042d5761014c565b80636fabf2ca146102db5780637d19ccc3146102f95780638cd295c21461031757806392f3f06b14610335578063a22cb46514610353578063a58b1f551461036f5761014c565b80632eb2c2d6116101155780632eb2c2d61461021b5780634e1273f414610237578063558e2eaf146102675780635653e3ac1461028357806368686c7a146102a157806369f9901e146102bd5761014c565b8062fdd58e1461015157806301ffc9a7146101815780630e89341c146101b15780631ac21d09146101e15780632d677595146101fd575b600080fd5b61016b6004803603810190610166919061200f565b610449565b604051610178919061273f565b60405180910390f35b61019b600480360381019061019691906120b7565b610512565b6040516101a89190612547565b60405180910390f35b6101cb60048036038101906101c69190612109565b6105f4565b6040516101d8919061257d565b60405180910390f35b6101fb60048036038101906101f69190612109565b610688565b005b6102056106a7565b604051610212919061273f565b60405180910390f35b61023560048036038101906102309190611e85565b6106ac565b005b610251600480360381019061024c919061204b565b61074d565b60405161025e91906124ee565b60405180910390f35b610281600480360381019061027c9190612109565b6108fe565b005b61028b610959565b604051610298919061273f565b60405180910390f35b6102bb60048036038101906102b69190612109565b61095e565b005b6102c56109b9565b6040516102d2919061273f565b60405180910390f35b6102e36109be565b6040516102f0919061273f565b60405180910390f35b6103016109c3565b60405161030e919061273f565b60405180910390f35b61031f6109c8565b60405161032c9190612562565b60405180910390f35b61033d6109ee565b60405161034a919061273f565b60405180910390f35b61036d60048036038101906103689190611fd3565b6109f3565b005b61038960048036038101906103849190612109565b610a09565b005b6103a560048036038101906103a09190612109565b610a82565b005b6103c160048036038101906103bc9190612109565b610aa1565b005b6103cb610ac0565b6040516103d8919061273f565b60405180910390f35b6103fb60048036038101906103f69190612109565b610ac5565b005b61041760048036038101906104129190611e49565b610ae4565b6040516104249190612547565b60405180910390f35b61044760048036038101906104429190611f44565b610b78565b005b60008073ffffffffffffffffffffffffffffffffffffffff168373ffffffffffffffffffffffffffffffffffffffff1614156104ba576040517f08c379a00000000000000000000000000000000000000000000000000000000081526004016104b1906125df565b60405180910390fd5b60008083815260200190815260200160002060008473ffffffffffffffffffffffffffffffffffffffff1673ffffffffffffffffffffffffffffffffffffffff16815260200190815260200160002054905092915050565b60007fd9b67a26000000000000000000000000000000000000000000000000000000007bffffffffffffffffffffffffffffffffffffffffffffffffffffffff1916827bffffffffffffffffffffffffffffffffffffffffffffffffffffffff191614806105dd57507f0e89341c000000000000000000000000000000000000000000000000000000007bffffffffffffffffffffffffffffffffffffffffffffffffffffffff1916827bffffffffffffffffffffffffffffffffffffffffffffffffffffffff1916145b806105ed57506105ec82610c3c565b5b9050919050565b60606002805461060390612a2c565b80601f016020809104026020016040519081016040528092919081815260200182805461062f90612a2c565b801561067c5780601f106106515761010080835404028352916020019161067c565b820191906000526020600020905b81548152906001019060200180831161065f57829003601f168201915b50505050509050919050565b6106a43360008360405180602001604052806000815250610ca6565b50565b600481565b6106b4610e3c565b73ffffffffffffffffffffffffffffffffffffffff168573ffffffffffffffffffffffffffffffffffffffff1614806106fa57506106f9856106f4610e3c565b610ae4565b5b610739576040517f08c379a00000000000000000000000000000000000000000000000000000000081526004016107309061265f565b60405180910390fd5b6107468585858585610e44565b5050505050565b60608151835114610793576040517f08c379a000000000000000000000000000000000000000000000000000000000815260040161078a906126df565b60405180910390fd5b6000835167ffffffffffffffff8111156107d6577f4e487b7100000000000000000000000000000000000000000000000000000000600052604160045260246000fd5b6040519080825280602002602001820160405280156108045781602001602082028036833780820191505090505b50905060005b84518110156108f35761089d85828151811061084f577f4e487b7100000000000000000000000000000000000000000000000000000000600052603260045260246000fd5b6020026020010151858381518110610890577f4e487b7100000000000000000000000000000000000000000000000000000000600052603260045260246000fd5b6020026020010151610449565b8282815181106108d6577f4e487b7100000000000000000000000000000000000000000000000000000000600052603260045260246000fd5b602002602001018181525050806108ec90612a8f565b905061080a565b508091505092915050565b6000600a8261090d91906128f8565b9050600060058361091e91906128f8565b905061092c336002846111a4565b610938336001836111a4565b6109543360038560405180602001604052806000815250610ca6565b505050565b600081565b6000600a8261096d91906128f8565b9050600060058361097e91906128f8565b905061098c336002846111a4565b610998336001836111a4565b6109b43360048560405180602001604052806000815250610ca6565b505050565b600181565b600581565b600281565b600360009054906101000a900473ffffffffffffffffffffffffffffffffffffffff1681565b600681565b610a056109fe610e3c565b83836113c1565b5050565b6000600a82610a1891906128f8565b90506000600a83610a2991906128f8565b90506000600584610a3a91906128f8565b9050610a48336002856111a4565b610a54336000846111a4565b610a60336005836111a4565b610a7c3360068660405180602001604052806000815250610ca6565b50505050565b610a9e3360018360405180602001604052806000815250610ca6565b50565b610abd3360028360405180602001604052806000815250610ca6565b50565b600381565b610ae13360058360405180602001604052806000815250610ca6565b50565b6000600160008473ffffffffffffffffffffffffffffffffffffffff1673ffffffffffffffffffffffffffffffffffffffff16815260200190815260200160002060008373ffffffffffffffffffffffffffffffffffffffff1673ffffffffffffffffffffffffffffffffffffffff16815260200190815260200160002060009054906101000a900460ff16905092915050565b610b80610e3c565b73ffffffffffffffffffffffffffffffffffffffff168573ffffffffffffffffffffffffffffffffffffffff161480610bc65750610bc585610bc0610e3c565b610ae4565b5b610c05576040517f08c379a0000000000000000000000000000000000000000000000000000000008152600401610bfc9061261f565b60405180910390fd5b610c12858585858561152e565b5050505050565b6000808273ffffffffffffffffffffffffffffffffffffffff163b119050919050565b60007f01ffc9a7000000000000000000000000000000000000000000000000000000007bffffffffffffffffffffffffffffffffffffffffffffffffffffffff1916827bffffffffffffffffffffffffffffffffffffffffffffffffffffffff1916149050919050565b600073ffffffffffffffffffffffffffffffffffffffff168473ffffffffffffffffffffffffffffffffffffffff161415610d16576040517f08c379a0000000000000000000000000000000000000000000000000000000008152600401610d0d9061271f565b60405180910390fd5b6000610d20610e3c565b9050610d4181600087610d32886117b0565b610d3b886117b0565b87611876565b8260008086815260200190815260200160002060008773ffffffffffffffffffffffffffffffffffffffff1673ffffffffffffffffffffffffffffffffffffffff1681526020019081526020016000206000828254610da091906128a2565b925050819055508473ffffffffffffffffffffffffffffffffffffffff16600073ffffffffffffffffffffffffffffffffffffffff168273ffffffffffffffffffffffffffffffffffffffff167fc3d58168c5ae7397731d063d5bbf3d657854427343f4c083240f7aacaa2d0f628787604051610e1e92919061275a565b60405180910390a4610e358160008787878761187e565b5050505050565b600033905090565b8151835114610e88576040517f08c379a0000000000000000000000000000000000000000000000000000000008152600401610e7f906126ff565b60405180910390fd5b600073ffffffffffffffffffffffffffffffffffffffff168473ffffffffffffffffffffffffffffffffffffffff161415610ef8576040517f08c379a0000000000000000000000000000000000000000000000000000000008152600401610eef9061263f565b60405180910390fd5b6000610f02610e3c565b9050610f12818787878787611876565b60005b845181101561110f576000858281518110610f59577f4e487b7100000000000000000000000000000000000000000000000000000000600052603260045260246000fd5b602002602001015190506000858381518110610f9e577f4e487b7100000000000000000000000000000000000000000000000000000000600052603260045260246000fd5b60200260200101519050600080600084815260200190815260200160002060008b73ffffffffffffffffffffffffffffffffffffffff1673ffffffffffffffffffffffffffffffffffffffff1681526020019081526020016000205490508181101561103f576040517f08c379a00000000000000000000000000000000000000000000000000000000081526004016110369061269f565b60405180910390fd5b81810360008085815260200190815260200160002060008c73ffffffffffffffffffffffffffffffffffffffff1673ffffffffffffffffffffffffffffffffffffffff168152602001908152602001600020819055508160008085815260200190815260200160002060008b73ffffffffffffffffffffffffffffffffffffffff1673ffffffffffffffffffffffffffffffffffffffff16815260200190815260200160002060008282546110f491906128a2565b925050819055505050508061110890612a8f565b9050610f15565b508473ffffffffffffffffffffffffffffffffffffffff168673ffffffffffffffffffffffffffffffffffffffff168273ffffffffffffffffffffffffffffffffffffffff167f4a39dc06d4c0dbc64b70af90fd698a233a518aa5d07e595d983b8c0526c8f7fb8787604051611186929190612510565b60405180910390a461119c818787878787611a65565b505050505050565b600073ffffffffffffffffffffffffffffffffffffffff168373ffffffffffffffffffffffffffffffffffffffff161415611214576040517f08c379a000000000000000000000000000000000000000000000000000000000815260040161120b9061267f565b60405180910390fd5b600061121e610e3c565b905061124e81856000611230876117b0565b611239876117b0565b60405180602001604052806000815250611876565b600080600085815260200190815260200160002060008673ffffffffffffffffffffffffffffffffffffffff1673ffffffffffffffffffffffffffffffffffffffff168152602001908152602001600020549050828110156112e5576040517f08c379a00000000000000000000000000000000000000000000000000000000081526004016112dc906125ff565b60405180910390fd5b82810360008086815260200190815260200160002060008773ffffffffffffffffffffffffffffffffffffffff1673ffffffffffffffffffffffffffffffffffffffff16815260200190815260200160002081905550600073ffffffffffffffffffffffffffffffffffffffff168573ffffffffffffffffffffffffffffffffffffffff168373ffffffffffffffffffffffffffffffffffffffff167fc3d58168c5ae7397731d063d5bbf3d657854427343f4c083240f7aacaa2d0f6287876040516113b292919061275a565b60405180910390a45050505050565b8173ffffffffffffffffffffffffffffffffffffffff168373ffffffffffffffffffffffffffffffffffffffff161415611430576040517f08c379a0000000000000000000000000000000000000000000000000000000008152600401611427906126bf565b60405180910390fd5b80600160008573ffffffffffffffffffffffffffffffffffffffff1673ffffffffffffffffffffffffffffffffffffffff16815260200190815260200160002060008473ffffffffffffffffffffffffffffffffffffffff1673ffffffffffffffffffffffffffffffffffffffff16815260200190815260200160002060006101000a81548160ff0219169083151502179055508173ffffffffffffffffffffffffffffffffffffffff168373ffffffffffffffffffffffffffffffffffffffff167f17307eab39ab6107e8899845ad3d59bd9653f200f220920489ca2b5937696c31836040516115219190612547565b60405180910390a3505050565b600073ffffffffffffffffffffffffffffffffffffffff168473ffffffffffffffffffffffffffffffffffffffff16141561159e576040517f08c379a00000000000000000000000000000000000000000000000000000000081526004016115959061263f565b60405180910390fd5b60006115a8610e3c565b90506115c88187876115b9886117b0565b6115c2886117b0565b87611876565b600080600086815260200190815260200160002060008873ffffffffffffffffffffffffffffffffffffffff1673ffffffffffffffffffffffffffffffffffffffff1681526020019081526020016000205490508381101561165f576040517f08c379a00000000000000000000000000000000000000000000000000000000081526004016116569061269f565b60405180910390fd5b83810360008087815260200190815260200160002060008973ffffffffffffffffffffffffffffffffffffffff1673ffffffffffffffffffffffffffffffffffffffff168152602001908152602001600020819055508360008087815260200190815260200160002060008873ffffffffffffffffffffffffffffffffffffffff1673ffffffffffffffffffffffffffffffffffffffff168152602001908152602001600020600082825461171491906128a2565b925050819055508573ffffffffffffffffffffffffffffffffffffffff168773ffffffffffffffffffffffffffffffffffffffff168373ffffffffffffffffffffffffffffffffffffffff167fc3d58168c5ae7397731d063d5bbf3d657854427343f4c083240f7aacaa2d0f62888860405161179192919061275a565b60405180910390a46117a782888888888861187e565b50505050505050565b60606000600167ffffffffffffffff8111156117f5577f4e487b7100000000000000000000000000000000000000000000000000000000600052604160045260246000fd5b6040519080825280602002602001820160405280156118235781602001602082028036833780820191505090505b5090508281600081518110611861577f4e487b7100000000000000000000000000000000000000000000000000000000600052603260045260246000fd5b60200260200101818152505080915050919050565b505050505050565b61189d8473ffffffffffffffffffffffffffffffffffffffff16610c19565b15611a5d578373ffffffffffffffffffffffffffffffffffffffff1663f23a6e6187878686866040518663ffffffff1660e01b81526004016118e3959493929190612494565b602060405180830381600087803b1580156118fd57600080fd5b505af192505050801561192e57506040513d601f19601f8201168201806040525081019061192b91906120e0565b60015b6119d45761193a612b65565b806308c379a01415611997575061194f612fa8565b8061195a5750611999565b806040517f08c379a000000000000000000000000000000000000000000000000000000000815260040161198e919061257d565b60405180910390fd5b505b6040517f08c379a00000000000000000000000000000000000000000000000000000000081526004016119cb9061259f565b60405180910390fd5b63f23a6e6160e01b7bffffffffffffffffffffffffffffffffffffffffffffffffffffffff1916817bffffffffffffffffffffffffffffffffffffffffffffffffffffffff191614611a5b576040517f08c379a0000000000000000000000000000000000000000000000000000000008152600401611a52906125bf565b60405180910390fd5b505b505050505050565b611a848473ffffffffffffffffffffffffffffffffffffffff16610c19565b15611c44578373ffffffffffffffffffffffffffffffffffffffff1663bc197c8187878686866040518663ffffffff1660e01b8152600401611aca95949392919061242c565b602060405180830381600087803b158015611ae457600080fd5b505af1925050508015611b1557506040513d601f19601f82011682018060405250810190611b1291906120e0565b60015b611bbb57611b21612b65565b806308c379a01415611b7e5750611b36612fa8565b80611b415750611b80565b806040517f08c379a0000000000000000000000000000000000000000000000000000000008152600401611b75919061257d565b60405180910390fd5b505b6040517f08c379a0000000000000000000000000000000000000000000000000000000008152600401611bb29061259f565b60405180910390fd5b63bc197c8160e01b7bffffffffffffffffffffffffffffffffffffffffffffffffffffffff1916817bffffffffffffffffffffffffffffffffffffffffffffffffffffffff191614611c42576040517f08c379a0000000000000000000000000000000000000000000000000000000008152600401611c39906125bf565b60405180910390fd5b505b505050505050565b6000611c5f611c5a846127a8565b612783565b90508083825260208201905082856020860282011115611c7e57600080fd5b60005b85811015611cae5781611c948882611d62565b845260208401935060208301925050600181019050611c81565b5050509392505050565b6000611ccb611cc6846127d4565b612783565b90508083825260208201905082856020860282011115611cea57600080fd5b60005b85811015611d1a5781611d008882611e34565b845260208401935060208301925050600181019050611ced565b5050509392505050565b6000611d37611d3284612800565b612783565b905082815260208101848484011115611d4f57600080fd5b611d5a8482856129ea565b509392505050565b600081359050611d718161303e565b92915050565b600082601f830112611d8857600080fd5b8135611d98848260208601611c4c565b91505092915050565b600082601f830112611db257600080fd5b8135611dc2848260208601611cb8565b91505092915050565b600081359050611dda81613055565b92915050565b600081359050611def8161306c565b92915050565b600081519050611e048161306c565b92915050565b600082601f830112611e1b57600080fd5b8135611e2b848260208601611d24565b91505092915050565b600081359050611e4381613083565b92915050565b60008060408385031215611e5c57600080fd5b6000611e6a85828601611d62565b9250506020611e7b85828601611d62565b9150509250929050565b600080600080600060a08688031215611e9d57600080fd5b6000611eab88828901611d62565b9550506020611ebc88828901611d62565b945050604086013567ffffffffffffffff811115611ed957600080fd5b611ee588828901611da1565b935050606086013567ffffffffffffffff811115611f0257600080fd5b611f0e88828901611da1565b925050608086013567ffffffffffffffff811115611f2b57600080fd5b611f3788828901611e0a565b9150509295509295909350565b600080600080600060a08688031215611f5c57600080fd5b6000611f6a88828901611d62565b9550506020611f7b88828901611d62565b9450506040611f8c88828901611e34565b9350506060611f9d88828901611e34565b925050608086013567ffffffffffffffff811115611fba57600080fd5b611fc688828901611e0a565b9150509295509295909350565b60008060408385031215611fe657600080fd5b6000611ff485828601611d62565b925050602061200585828601611dcb565b9150509250929050565b6000806040838503121561202257600080fd5b600061203085828601611d62565b925050602061204185828601611e34565b9150509250929050565b6000806040838503121561205e57600080fd5b600083013567ffffffffffffffff81111561207857600080fd5b61208485828601611d77565b925050602083013567ffffffffffffffff8111156120a157600080fd5b6120ad85828601611da1565b9150509250929050565b6000602082840312156120c957600080fd5b60006120d784828501611de0565b91505092915050565b6000602082840312156120f257600080fd5b600061210084828501611df5565b91505092915050565b60006020828403121561211b57600080fd5b600061212984828501611e34565b91505092915050565b600061213e838361240e565b60208301905092915050565b61215381612952565b82525050565b600061216482612841565b61216e818561286f565b935061217983612831565b8060005b838110156121aa5781516121918882612132565b975061219c83612862565b92505060018101905061217d565b5085935050505092915050565b6121c081612964565b82525050565b60006121d18261284c565b6121db8185612880565b93506121eb8185602086016129f9565b6121f481612b87565b840191505092915050565b612208816129c6565b82525050565b600061221982612857565b6122238185612891565b93506122338185602086016129f9565b61223c81612b87565b840191505092915050565b6000612254603483612891565b915061225f82612ba5565b604082019050919050565b6000612277602883612891565b915061228282612bf4565b604082019050919050565b600061229a602b83612891565b91506122a582612c43565b604082019050919050565b60006122bd602483612891565b91506122c882612c92565b604082019050919050565b60006122e0602983612891565b91506122eb82612ce1565b604082019050919050565b6000612303602583612891565b915061230e82612d30565b604082019050919050565b6000612326603283612891565b915061233182612d7f565b604082019050919050565b6000612349602383612891565b915061235482612dce565b604082019050919050565b600061236c602a83612891565b915061237782612e1d565b604082019050919050565b600061238f602983612891565b915061239a82612e6c565b604082019050919050565b60006123b2602983612891565b91506123bd82612ebb565b604082019050919050565b60006123d5602883612891565b91506123e082612f0a565b604082019050919050565b60006123f8602183612891565b915061240382612f59565b604082019050919050565b612417816129bc565b82525050565b612426816129bc565b82525050565b600060a082019050612441600083018861214a565b61244e602083018761214a565b81810360408301526124608186612159565b905081810360608301526124748185612159565b9050818103608083015261248881846121c6565b90509695505050505050565b600060a0820190506124a9600083018861214a565b6124b6602083018761214a565b6124c3604083018661241d565b6124d0606083018561241d565b81810360808301526124e281846121c6565b90509695505050505050565b600060208201905081810360008301526125088184612159565b905092915050565b6000604082019050818103600083015261252a8185612159565b9050818103602083015261253e8184612159565b90509392505050565b600060208201905061255c60008301846121b7565b92915050565b600060208201905061257760008301846121ff565b92915050565b60006020820190508181036000830152612597818461220e565b905092915050565b600060208201905081810360008301526125b881612247565b9050919050565b600060208201905081810360008301526125d88161226a565b9050919050565b600060208201905081810360008301526125f88161228d565b9050919050565b60006020820190508181036000830152612618816122b0565b9050919050565b60006020820190508181036000830152612638816122d3565b9050919050565b60006020820190508181036000830152612658816122f6565b9050919050565b6000602082019050818103600083015261267881612319565b9050919050565b600060208201905081810360008301526126988161233c565b9050919050565b600060208201905081810360008301526126b88161235f565b9050919050565b600060208201905081810360008301526126d881612382565b9050919050565b600060208201905081810360008301526126f8816123a5565b9050919050565b60006020820190508181036000830152612718816123c8565b9050919050565b60006020820190508181036000830152612738816123eb565b9050919050565b6000602082019050612754600083018461241d565b92915050565b600060408201905061276f600083018561241d565b61277c602083018461241d565b9392505050565b600061278d61279e565b90506127998282612a5e565b919050565b6000604051905090565b600067ffffffffffffffff8211156127c3576127c2612b36565b5b602082029050602081019050919050565b600067ffffffffffffffff8211156127ef576127ee612b36565b5b602082029050602081019050919050565b600067ffffffffffffffff82111561281b5761281a612b36565b5b61282482612b87565b9050602081019050919050565b6000819050602082019050919050565b600081519050919050565b600081519050919050565b600081519050919050565b6000602082019050919050565b600082825260208201905092915050565b600082825260208201905092915050565b600082825260208201905092915050565b60006128ad826129bc565b91506128b8836129bc565b9250827fffffffffffffffffffffffffffffffffffffffffffffffffffffffffffffffff038211156128ed576128ec612ad8565b5b828201905092915050565b6000612903826129bc565b915061290e836129bc565b9250817fffffffffffffffffffffffffffffffffffffffffffffffffffffffffffffffff048311821515161561294757612946612ad8565b5b828202905092915050565b600061295d8261299c565b9050919050565b60008115159050919050565b60007fffffffff0000000000000000000000000000000000000000000000000000000082169050919050565b600073ffffffffffffffffffffffffffffffffffffffff82169050919050565b6000819050919050565b60006129d1826129d8565b9050919050565b60006129e38261299c565b9050919050565b82818337600083830152505050565b60005b83811015612a175780820151818401526020810190506129fc565b83811115612a26576000848401525b50505050565b60006002820490506001821680612a4457607f821691505b60208210811415612a5857612a57612b07565b5b50919050565b612a6782612b87565b810181811067ffffffffffffffff82111715612a8657612a85612b36565b5b80604052505050565b6000612a9a826129bc565b91507fffffffffffffffffffffffffffffffffffffffffffffffffffffffffffffffff821415612acd57612acc612ad8565b5b600182019050919050565b7f4e487b7100000000000000000000000000000000000000000000000000000000600052601160045260246000fd5b7f4e487b7100000000000000000000000000000000000000000000000000000000600052602260045260246000fd5b7f4e487b7100000000000000000000000000000000000000000000000000000000600052604160045260246000fd5b600060033d1115612b845760046000803e612b81600051612b98565b90505b90565b6000601f19601f8301169050919050565b60008160e01c9050919050565b7f455243313135353a207472616e7366657220746f206e6f6e204552433131353560008201527f526563656976657220696d706c656d656e746572000000000000000000000000602082015250565b7f455243313135353a204552433131353552656365697665722072656a6563746560008201527f6420746f6b656e73000000000000000000000000000000000000000000000000602082015250565b7f455243313135353a2062616c616e636520717565727920666f7220746865207a60008201527f65726f2061646472657373000000000000000000000000000000000000000000602082015250565b7f455243313135353a206275726e20616d6f756e7420657863656564732062616c60008201527f616e636500000000000000000000000000000000000000000000000000000000602082015250565b7f455243313135353a2063616c6c6572206973206e6f74206f776e6572206e6f7260008201527f20617070726f7665640000000000000000000000000000000000000000000000602082015250565b7f455243313135353a207472616e7366657220746f20746865207a65726f20616460008201527f6472657373000000000000000000000000000000000000000000000000000000602082015250565b7f455243313135353a207472616e736665722063616c6c6572206973206e6f742060008201527f6f776e6572206e6f7220617070726f7665640000000000000000000000000000602082015250565b7f455243313135353a206275726e2066726f6d20746865207a65726f206164647260008201527f6573730000000000000000000000000000000000000000000000000000000000602082015250565b7f455243313135353a20696e73756666696369656e742062616c616e636520666f60008201527f72207472616e7366657200000000000000000000000000000000000000000000602082015250565b7f455243313135353a2073657474696e6720617070726f76616c2073746174757360008201527f20666f722073656c660000000000000000000000000000000000000000000000602082015250565b7f455243313135353a206163636f756e747320616e6420696473206c656e67746860008201527f206d69736d617463680000000000000000000000000000000000000000000000602082015250565b7f455243313135353a2069647320616e6420616d6f756e7473206c656e6774682060008201527f6d69736d61746368000000000000000000000000000000000000000000000000602082015250565b7f455243313135353a206d696e7420746f20746865207a65726f2061646472657360008201527f7300000000000000000000000000000000000000000000000000000000000000602082015250565b600060443d1015612fb85761303b565b612fc061279e565b60043d036004823e80513d602482011167ffffffffffffffff82111715612fe857505061303b565b808201805167ffffffffffffffff811115613006575050505061303b565b80602083010160043d03850181111561302357505050505061303b565b61303282602001850186612a5e565b82955050505050505b90565b61304781612952565b811461305257600080fd5b50565b61305e81612964565b811461306957600080fd5b50565b61307581612970565b811461308057600080fd5b50565b61308c816129bc565b811461309757600080fd5b5056fea2646970667358221220249b8f936a5a53f432beddea802b8c19c7fecadac94f85b376e717a58715db0464736f6c63430008040033",
  "linkReferences": {},
  "deployedLinkReferences": {}
}